{
	"HelloWorld.sol": {
		"HelloWorld": {
			"abi": [
				{
					"inputs": [],
					"name": "retrieveNumber",
					"outputs": [],
					"stateMutability": "nonpayable",
					"type": "function"
				},
				{
					"inputs": [],
					"name": "storeNumber",
					"outputs": [],
					"stateMutability": "nonpayable",
					"type": "function"
				}
			],
			"devdoc": {
				"kind": "dev",
				"methods": {},
				"version": 1
			},
			"evm": {
				"assembly": "    /* \"HelloWorld.sol\":56:188  contract HelloWorld{... */\n  mstore(0x40, 0x80)\n  callvalue\n  dup1\n  iszero\n  tag_1\n  jumpi\n  0x00\n  dup1\n  revert\ntag_1:\n  pop\n  dataSize(sub_0)\n  dup1\n  dataOffset(sub_0)\n  0x00\n  codecopy\n  0x00\n  return\nstop\n\nsub_0: assembly {\n        /* \"HelloWorld.sol\":56:188  contract HelloWorld{... */\n      mstore(0x40, 0x80)\n      callvalue\n      dup1\n      iszero\n      tag_1\n      jumpi\n      0x00\n      dup1\n      revert\n    tag_1:\n      pop\n      jumpi(tag_2, lt(calldatasize, 0x04))\n      shr(0xe0, calldataload(0x00))\n      dup1\n      0x1cdb717f\n      eq\n      tag_3\n      jumpi\n      dup1\n      0xa009491b\n      eq\n      tag_4\n      jumpi\n    tag_2:\n      0x00\n      dup1\n      revert\n        /* \"HelloWorld.sol\":102:140  function storeNumber()external{... */\n    tag_3:\n      tag_5\n      tag_6\n      jump\t// in\n    tag_5:\n      stop\n        /* \"HelloWorld.sol\":145:186  function retrieveNumber()external{... */\n    tag_4:\n      tag_7\n      tag_8\n      jump\t// in\n    tag_7:\n      stop\n        /* \"HelloWorld.sol\":102:140  function storeNumber()external{... */\n    tag_6:\n      jump\t// out\n        /* \"HelloWorld.sol\":145:186  function retrieveNumber()external{... */\n    tag_8:\n      jump\t// out\n\n    auxdata: 0xa2646970667358221220d834c3f60a705ce01c96765a35523dde5592aafc62a349c07dbc1765e075ff0764736f6c63430008070033\n}\n",
				"bytecode": {
					"linkReferences": {},
					"object": "6080604052348015600f57600080fd5b5060818061001e6000396000f3fe6080604052348015600f57600080fd5b506004361060325760003560e01c80631cdb717f146037578063a009491b14603f575b600080fd5b603d6047565b005b60456049565b005b565b56fea2646970667358221220d834c3f60a705ce01c96765a35523dde5592aafc62a349c07dbc1765e075ff0764736f6c63430008070033",
					"opcodes": "PUSH1 0x80 PUSH1 0x40 MSTORE CALLVALUE DUP1 ISZERO PUSH1 0xF JUMPI PUSH1 0x0 DUP1 REVERT JUMPDEST POP PUSH1 0x81 DUP1 PUSH2 0x1E PUSH1 0x0 CODECOPY PUSH1 0x0 RETURN INVALID PUSH1 0x80 PUSH1 0x40 MSTORE CALLVALUE DUP1 ISZERO PUSH1 0xF JUMPI PUSH1 0x0 DUP1 REVERT JUMPDEST POP PUSH1 0x4 CALLDATASIZE LT PUSH1 0x32 JUMPI PUSH1 0x0 CALLDATALOAD PUSH1 0xE0 SHR DUP1 PUSH4 0x1CDB717F EQ PUSH1 0x37 JUMPI DUP1 PUSH4 0xA009491B EQ PUSH1 0x3F JUMPI JUMPDEST PUSH1 0x0 DUP1 REVERT JUMPDEST PUSH1 0x3D PUSH1 0x47 JUMP JUMPDEST STOP JUMPDEST PUSH1 0x45 PUSH1 0x49 JUMP JUMPDEST STOP JUMPDEST JUMP JUMPDEST JUMP INVALID LOG2 PUSH5 0x6970667358 0x22 SLT KECCAK256 0xD8 CALLVALUE 0xC3 0xF6 EXP PUSH17 0x5CE01C96765A35523DDE5592AAFC62A349 0xC0 PUSH30 0xBC1765E075FF0764736F6C63430008070033000000000000000000000000 "
				},
				"gasEstimates": {
					"creation": {
						"codeDepositCost": "25800",
						"executionCost": "81",
						"totalCost": "25881"
					},
					"external": {
						"retrieveNumber()": "144",
						"storeNumber()": "122"
					}
				},
				"methodIdentifiers": {
					"retrieveNumber()": "a009491b",
					"storeNumber()": "1cdb717f"
				}
			},
			"storageLayout": {
				"storage": [
					{
						"astId": 3,
						"contract": "HelloWorld.sol:HelloWorld",
						"label": "number",
						"offset": 0,
						"slot": "0",
						"type": "t_int256"
					}
				],
				"types": {
					"t_int256": {
						"encoding": "inplace",
						"label": "int256",
						"numberOfBytes": "32"
					}
				}
			},
			"userdoc": {
				"kind": "user",
				"methods": {},
				"version": 1
			}
		}
	}
}